{
  "_format": "hh-sol-artifact-1",
  "contractName": "Auth",
  "sourceName": "contracts/Auth.sol",
  "abi": [
    {
      "inputs": [
        {
          "internalType": "address",
          "name": "_addr",
          "type": "address"
        }
      ],
      "name": "checkUserExits",
      "outputs": [
        {
          "internalType": "bool",
          "name": "",
          "type": "bool"
        }
      ],
      "stateMutability": "view",
      "type": "function"
    },
    {
      "inputs": [
        {
          "internalType": "address",
          "name": "_addr",
          "type": "address"
        },
        {
          "internalType": "string",
          "name": "_image",
          "type": "string"
        },
        {
          "internalType": "string",
          "name": "_sid",
          "type": "string"
        },
        {
          "internalType": "string",
          "name": "_fname",
          "type": "string"
        },
        {
          "internalType": "string",
          "name": "_lname",
          "type": "string"
        },
        {
          "internalType": "string",
          "name": "_gender",
          "type": "string"
        },
        {
          "internalType": "string",
          "name": "_grade",
          "type": "string"
        },
        {
          "internalType": "string",
          "name": "_course",
          "type": "string"
        },
        {
          "internalType": "string",
          "name": "_level",
          "type": "string"
        },
        {
          "internalType": "uint256",
          "name": "_mobile",
          "type": "uint256"
        }
      ],
      "name": "create",
      "outputs": [],
      "stateMutability": "nonpayable",
      "type": "function"
    },
    {
      "inputs": [],
      "name": "getAllAppImage",
      "outputs": [
        {
          "components": [
            {
              "internalType": "address",
              "name": "addr",
              "type": "address"
            },
            {
              "internalType": "string",
              "name": "image",
              "type": "string"
            }
          ],
          "internalType": "struct Auth.AllImage[]",
          "name": "",
          "type": "tuple[]"
        }
      ],
      "stateMutability": "view",
      "type": "function"
    },
    {
      "inputs": [],
      "name": "getAllAppUser",
      "outputs": [
        {
          "components": [
            {
              "internalType": "address",
              "name": "addr",
              "type": "address"
            },
            {
              "internalType": "string",
              "name": "sid",
              "type": "string"
            }
          ],
          "internalType": "struct Auth.AllUser[]",
          "name": "",
          "type": "tuple[]"
        }
      ],
      "stateMutability": "view",
      "type": "function"
    },
    {
      "inputs": [
        {
          "internalType": "address",
          "name": "_addr",
          "type": "address"
        }
      ],
      "name": "getData",
      "outputs": [
        {
          "internalType": "string",
          "name": "",
          "type": "string"
        },
        {
          "internalType": "string",
          "name": "",
          "type": "string"
        },
        {
          "internalType": "string",
          "name": "",
          "type": "string"
        },
        {
          "internalType": "string",
          "name": "",
          "type": "string"
        },
        {
          "internalType": "string",
          "name": "",
          "type": "string"
        },
        {
          "internalType": "string",
          "name": "",
          "type": "string"
        },
        {
          "internalType": "string",
          "name": "",
          "type": "string"
        }
      ],
      "stateMutability": "view",
      "type": "function"
    },
    {
      "inputs": [
        {
          "internalType": "address",
          "name": "_addr",
          "type": "address"
        }
      ],
      "name": "getImage",
      "outputs": [
        {
          "internalType": "string",
          "name": "",
          "type": "string"
        }
      ],
      "stateMutability": "view",
      "type": "function"
    },
    {
      "inputs": [
        {
          "internalType": "address",
          "name": "_addr",
          "type": "address"
        }
      ],
      "name": "getUsercourse",
      "outputs": [
        {
          "internalType": "string",
          "name": "",
          "type": "string"
        }
      ],
      "stateMutability": "view",
      "type": "function"
    },
    {
      "inputs": [
        {
          "internalType": "address",
          "name": "_addr",
          "type": "address"
        }
      ],
      "name": "getUserfname",
      "outputs": [
        {
          "internalType": "string",
          "name": "",
          "type": "string"
        }
      ],
      "stateMutability": "view",
      "type": "function"
    },
    {
      "inputs": [
        {
          "internalType": "address",
          "name": "_addr",
          "type": "address"
        }
      ],
      "name": "getUsergender",
      "outputs": [
        {
          "internalType": "string",
          "name": "",
          "type": "string"
        }
      ],
      "stateMutability": "view",
      "type": "function"
    },
    {
      "inputs": [
        {
          "internalType": "address",
          "name": "_addr",
          "type": "address"
        }
      ],
      "name": "getUsergrade",
      "outputs": [
        {
          "internalType": "string",
          "name": "",
          "type": "string"
        }
      ],
      "stateMutability": "view",
      "type": "function"
    },
    {
      "inputs": [
        {
          "internalType": "address",
          "name": "_addr",
          "type": "address"
        }
      ],
      "name": "getUserlevel",
      "outputs": [
        {
          "internalType": "string",
          "name": "",
          "type": "string"
        }
      ],
      "stateMutability": "view",
      "type": "function"
    },
    {
      "inputs": [
        {
          "internalType": "address",
          "name": "_addr",
          "type": "address"
        }
      ],
      "name": "getUserlname",
      "outputs": [
        {
          "internalType": "string",
          "name": "",
          "type": "string"
        }
      ],
      "stateMutability": "view",
      "type": "function"
    },
    {
      "inputs": [
        {
          "internalType": "address",
          "name": "_addr",
          "type": "address"
        }
      ],
      "name": "getUsersid",
      "outputs": [
        {
          "internalType": "string",
          "name": "",
          "type": "string"
        }
      ],
      "stateMutability": "view",
      "type": "function"
    }
  ],
  "bytecode": "0x608060405234801561001057600080fd5b50612956806100206000396000f3fe608060405234801561001057600080fd5b50600436106100cf5760003560e01c8063615924701161008c578063c18e36d011610066578063c18e36d014610266578063d224e77814610296578063dd0c3ac4146102c6578063fdcb1fe3146102f6576100cf565b806361592470146101fa5780637f40dff11461022a578063a24d41de14610248576100cf565b806301e75748146100d45780630377629214610104578063058ff442146101345780632f7b4b471461016457806338266b22146101945780634790f157146101ca575b600080fd5b6100ee60048036038101906100e99190611d84565b610312565b6040516100fb9190611e41565b60405180910390f35b61011e60048036038101906101199190611d84565b6103e6565b60405161012b9190611e41565b60405180910390f35b61014e60048036038101906101499190611d84565b6104ba565b60405161015b9190611e41565b60405180910390f35b61017e60048036038101906101799190611d84565b61058e565b60405161018b9190611e7e565b60405180910390f35b6101ae60048036038101906101a99190611d84565b6105e8565b6040516101c19796959493929190611e99565b60405180910390f35b6101e460048036038101906101df9190611d84565b610bae565b6040516101f19190611e41565b60405180910390f35b610214600480360381019061020f9190611d84565b610c82565b6040516102219190611e41565b60405180910390f35b610232610d56565b60405161023f9190612091565b60405180910390f35b610250610e9d565b60405161025d91906121b2565b60405180910390f35b610280600480360381019061027b9190611d84565b610fe4565b60405161028d9190611e41565b60405180910390f35b6102b060048036038101906102ab9190611d84565b6110b8565b6040516102bd9190611e41565b60405180910390f35b6102e060048036038101906102db9190611d84565b61118c565b6040516102ed9190611e41565b60405180910390f35b610310600480360381019061030b919061233f565b611260565b005b6060600960008373ffffffffffffffffffffffffffffffffffffffff1673ffffffffffffffffffffffffffffffffffffffff16815260200190815260200160002060040180546103619061252d565b80601f016020809104026020016040519081016040528092919081815260200182805461038d9061252d565b80156103da5780601f106103af576101008083540402835291602001916103da565b820191906000526020600020905b8154815290600101906020018083116103bd57829003601f168201915b50505050509050919050565b6060600960008373ffffffffffffffffffffffffffffffffffffffff1673ffffffffffffffffffffffffffffffffffffffff16815260200190815260200160002060060180546104359061252d565b80601f01602080910402602001604051908101604052809291908181526020018280546104619061252d565b80156104ae5780601f10610483576101008083540402835291602001916104ae565b820191906000526020600020905b81548152906001019060200180831161049157829003601f168201915b50505050509050919050565b6060600960008373ffffffffffffffffffffffffffffffffffffffff1673ffffffffffffffffffffffffffffffffffffffff16815260200190815260200160002060050180546105099061252d565b80601f01602080910402602001604051908101604052809291908181526020018280546105359061252d565b80156105825780601f1061055757610100808354040283529160200191610582565b820191906000526020600020905b81548152906001019060200180831161056557829003601f168201915b50505050509050919050565b600080600960008473ffffffffffffffffffffffffffffffffffffffff1673ffffffffffffffffffffffffffffffffffffffff16815260200190815260200160002060020180546105de9061252d565b9050119050919050565b6060806060806060806060600960008973ffffffffffffffffffffffffffffffffffffffff1673ffffffffffffffffffffffffffffffffffffffff168152602001908152602001600020600201600960008a73ffffffffffffffffffffffffffffffffffffffff1673ffffffffffffffffffffffffffffffffffffffff168152602001908152602001600020600301600960008b73ffffffffffffffffffffffffffffffffffffffff1673ffffffffffffffffffffffffffffffffffffffff168152602001908152602001600020600401600960008c73ffffffffffffffffffffffffffffffffffffffff1673ffffffffffffffffffffffffffffffffffffffff168152602001908152602001600020600501600960008d73ffffffffffffffffffffffffffffffffffffffff1673ffffffffffffffffffffffffffffffffffffffff168152602001908152602001600020600801600960008e73ffffffffffffffffffffffffffffffffffffffff1673ffffffffffffffffffffffffffffffffffffffff168152602001908152602001600020600601600960008f73ffffffffffffffffffffffffffffffffffffffff1673ffffffffffffffffffffffffffffffffffffffff1681526020019081526020016000206007018680546107cd9061252d565b80601f01602080910402602001604051908101604052809291908181526020018280546107f99061252d565b80156108465780601f1061081b57610100808354040283529160200191610846565b820191906000526020600020905b81548152906001019060200180831161082957829003601f168201915b505050505096508580546108599061252d565b80601f01602080910402602001604051908101604052809291908181526020018280546108859061252d565b80156108d25780601f106108a7576101008083540402835291602001916108d2565b820191906000526020600020905b8154815290600101906020018083116108b557829003601f168201915b505050505095508480546108e59061252d565b80601f01602080910402602001604051908101604052809291908181526020018280546109119061252d565b801561095e5780601f106109335761010080835404028352916020019161095e565b820191906000526020600020905b81548152906001019060200180831161094157829003601f168201915b505050505094508380546109719061252d565b80601f016020809104026020016040519081016040528092919081815260200182805461099d9061252d565b80156109ea5780601f106109bf576101008083540402835291602001916109ea565b820191906000526020600020905b8154815290600101906020018083116109cd57829003601f168201915b505050505093508280546109fd9061252d565b80601f0160208091040260200160405190810160405280929190818152602001828054610a299061252d565b8015610a765780601f10610a4b57610100808354040283529160200191610a76565b820191906000526020600020905b815481529060010190602001808311610a5957829003601f168201915b50505050509250818054610a899061252d565b80601f0160208091040260200160405190810160405280929190818152602001828054610ab59061252d565b8015610b025780601f10610ad757610100808354040283529160200191610b02565b820191906000526020600020905b815481529060010190602001808311610ae557829003601f168201915b50505050509150808054610b159061252d565b80601f0160208091040260200160405190810160405280929190818152602001828054610b419061252d565b8015610b8e5780601f10610b6357610100808354040283529160200191610b8e565b820191906000526020600020905b815481529060010190602001808311610b7157829003601f168201915b505050505090509650965096509650965096509650919395979092949650565b6060600960008373ffffffffffffffffffffffffffffffffffffffff1673ffffffffffffffffffffffffffffffffffffffff1681526020019081526020016000206002018054610bfd9061252d565b80601f0160208091040260200160405190810160405280929190818152602001828054610c299061252d565b8015610c765780601f10610c4b57610100808354040283529160200191610c76565b820191906000526020600020905b815481529060010190602001808311610c5957829003601f168201915b50505050509050919050565b6060600960008373ffffffffffffffffffffffffffffffffffffffff1673ffffffffffffffffffffffffffffffffffffffff1681526020019081526020016000206008018054610cd19061252d565b80601f0160208091040260200160405190810160405280929190818152602001828054610cfd9061252d565b8015610d4a5780601f10610d1f57610100808354040283529160200191610d4a565b820191906000526020600020905b815481529060010190602001808311610d2d57829003601f168201915b50505050509050919050565b60606008805480602002602001604051908101604052809291908181526020016000905b82821015610e9457838290600052602060002090600202016040518060400160405290816000820160009054906101000a900473ffffffffffffffffffffffffffffffffffffffff1673ffffffffffffffffffffffffffffffffffffffff1673ffffffffffffffffffffffffffffffffffffffff168152602001600182018054610e039061252d565b80601f0160208091040260200160405190810160405280929190818152602001828054610e2f9061252d565b8015610e7c5780601f10610e5157610100808354040283529160200191610e7c565b820191906000526020600020905b815481529060010190602001808311610e5f57829003601f168201915b50505050508152505081526020019060010190610d7a565b50505050905090565b60606000805480602002602001604051908101604052809291908181526020016000905b82821015610fdb57838290600052602060002090600202016040518060400160405290816000820160009054906101000a900473ffffffffffffffffffffffffffffffffffffffff1673ffffffffffffffffffffffffffffffffffffffff1673ffffffffffffffffffffffffffffffffffffffff168152602001600182018054610f4a9061252d565b80601f0160208091040260200160405190810160405280929190818152602001828054610f769061252d565b8015610fc35780601f10610f9857610100808354040283529160200191610fc3565b820191906000526020600020905b815481529060010190602001808311610fa657829003601f168201915b50505050508152505081526020019060010190610ec1565b50505050905090565b6060600960008373ffffffffffffffffffffffffffffffffffffffff1673ffffffffffffffffffffffffffffffffffffffff16815260200190815260200160002060010180546110339061252d565b80601f016020809104026020016040519081016040528092919081815260200182805461105f9061252d565b80156110ac5780601f10611081576101008083540402835291602001916110ac565b820191906000526020600020905b81548152906001019060200180831161108f57829003601f168201915b50505050509050919050565b6060600960008373ffffffffffffffffffffffffffffffffffffffff1673ffffffffffffffffffffffffffffffffffffffff16815260200190815260200160002060070180546111079061252d565b80601f01602080910402602001604051908101604052809291908181526020018280546111339061252d565b80156111805780601f1061115557610100808354040283529160200191611180565b820191906000526020600020905b81548152906001019060200180831161116357829003601f168201915b50505050509050919050565b6060600960008373ffffffffffffffffffffffffffffffffffffffff1673ffffffffffffffffffffffffffffffffffffffff16815260200190815260200160002060030180546111db9061252d565b80601f01602080910402602001604051908101604052809291908181526020018280546112079061252d565b80156112545780601f1061122957610100808354040283529160200191611254565b820191906000526020600020905b81548152906001019060200180831161123757829003601f168201915b50505050509050919050565b3373ffffffffffffffffffffffffffffffffffffffff168a73ffffffffffffffffffffffffffffffffffffffff16146112ce576040517f08c379a00000000000000000000000000000000000000000000000000000000081526004016112c5906125aa565b60405180910390fd5b600015156112db3361058e565b15151461131d576040517f08c379a000000000000000000000000000000000000000000000000000000000815260040161131490612616565b60405180910390fd5b6000885111611361576040517f08c379a000000000000000000000000000000000000000000000000000000000815260040161135890612682565b60405180910390fd5b89600960008c73ffffffffffffffffffffffffffffffffffffffff1673ffffffffffffffffffffffffffffffffffffffff16815260200190815260200160002060000160006101000a81548173ffffffffffffffffffffffffffffffffffffffff021916908373ffffffffffffffffffffffffffffffffffffffff16021790555088600960008c73ffffffffffffffffffffffffffffffffffffffff1673ffffffffffffffffffffffffffffffffffffffff1681526020019081526020016000206001019081611431919061284e565b5087600960008c73ffffffffffffffffffffffffffffffffffffffff1673ffffffffffffffffffffffffffffffffffffffff1681526020019081526020016000206002019081611481919061284e565b5086600960008c73ffffffffffffffffffffffffffffffffffffffff1673ffffffffffffffffffffffffffffffffffffffff16815260200190815260200160002060030190816114d1919061284e565b5085600960008c73ffffffffffffffffffffffffffffffffffffffff1673ffffffffffffffffffffffffffffffffffffffff1681526020019081526020016000206004019081611521919061284e565b5084600960008c73ffffffffffffffffffffffffffffffffffffffff1673ffffffffffffffffffffffffffffffffffffffff1681526020019081526020016000206005019081611571919061284e565b5083600960008c73ffffffffffffffffffffffffffffffffffffffff1673ffffffffffffffffffffffffffffffffffffffff16815260200190815260200160002060080190816115c1919061284e565b5082600960008c73ffffffffffffffffffffffffffffffffffffffff1673ffffffffffffffffffffffffffffffffffffffff1681526020019081526020016000206006019081611611919061284e565b5081600960008c73ffffffffffffffffffffffffffffffffffffffff1673ffffffffffffffffffffffffffffffffffffffff1681526020019081526020016000206007019081611661919061284e565b5080600960008c73ffffffffffffffffffffffffffffffffffffffff1673ffffffffffffffffffffffffffffffffffffffff16815260200190815260200160002060090181905550600060405180604001604052803373ffffffffffffffffffffffffffffffffffffffff1681526020018a815250908060018154018082558091505060019003906000526020600020906002020160009091909190915060008201518160000160006101000a81548173ffffffffffffffffffffffffffffffffffffffff021916908373ffffffffffffffffffffffffffffffffffffffff160217905550602082015181600101908161175b919061284e565b505050600160405180604001604052803373ffffffffffffffffffffffffffffffffffffffff1681526020018a815250908060018154018082558091505060019003906000526020600020906002020160009091909190915060008201518160000160006101000a81548173ffffffffffffffffffffffffffffffffffffffff021916908373ffffffffffffffffffffffffffffffffffffffff1602179055506020820151816001019081611810919061284e565b505050600260405180604001604052803373ffffffffffffffffffffffffffffffffffffffff16815260200189815250908060018154018082558091505060019003906000526020600020906002020160009091909190915060008201518160000160006101000a81548173ffffffffffffffffffffffffffffffffffffffff021916908373ffffffffffffffffffffffffffffffffffffffff16021790555060208201518160010190816118c5919061284e565b505050600360405180604001604052803373ffffffffffffffffffffffffffffffffffffffff16815260200188815250908060018154018082558091505060019003906000526020600020906002020160009091909190915060008201518160000160006101000a81548173ffffffffffffffffffffffffffffffffffffffff021916908373ffffffffffffffffffffffffffffffffffffffff160217905550602082015181600101908161197a919061284e565b505050600460405180604001604052803373ffffffffffffffffffffffffffffffffffffffff16815260200187815250908060018154018082558091505060019003906000526020600020906002020160009091909190915060008201518160000160006101000a81548173ffffffffffffffffffffffffffffffffffffffff021916908373ffffffffffffffffffffffffffffffffffffffff1602179055506020820151816001019081611a2f919061284e565b505050600560405180604001604052803373ffffffffffffffffffffffffffffffffffffffff16815260200186815250908060018154018082558091505060019003906000526020600020906002020160009091909190915060008201518160000160006101000a81548173ffffffffffffffffffffffffffffffffffffffff021916908373ffffffffffffffffffffffffffffffffffffffff1602179055506020820151816001019081611ae4919061284e565b505050600660405180604001604052803373ffffffffffffffffffffffffffffffffffffffff16815260200185815250908060018154018082558091505060019003906000526020600020906002020160009091909190915060008201518160000160006101000a81548173ffffffffffffffffffffffffffffffffffffffff021916908373ffffffffffffffffffffffffffffffffffffffff1602179055506020820151816001019081611b99919061284e565b505050600760405180604001604052803373ffffffffffffffffffffffffffffffffffffffff16815260200184815250908060018154018082558091505060019003906000526020600020906002020160009091909190915060008201518160000160006101000a81548173ffffffffffffffffffffffffffffffffffffffff021916908373ffffffffffffffffffffffffffffffffffffffff1602179055506020820151816001019081611c4e919061284e565b505050600860405180604001604052803373ffffffffffffffffffffffffffffffffffffffff1681526020018b815250908060018154018082558091505060019003906000526020600020906002020160009091909190915060008201518160000160006101000a81548173ffffffffffffffffffffffffffffffffffffffff021916908373ffffffffffffffffffffffffffffffffffffffff1602179055506020820151816001019081611d03919061284e565b50505050505050505050505050565b6000604051905090565b600080fd5b600080fd5b600073ffffffffffffffffffffffffffffffffffffffff82169050919050565b6000611d5182611d26565b9050919050565b611d6181611d46565b8114611d6c57600080fd5b50565b600081359050611d7e81611d58565b92915050565b600060208284031215611d9a57611d99611d1c565b5b6000611da884828501611d6f565b91505092915050565b600081519050919050565b600082825260208201905092915050565b60005b83811015611deb578082015181840152602081019050611dd0565b60008484015250505050565b6000601f19601f8301169050919050565b6000611e1382611db1565b611e1d8185611dbc565b9350611e2d818560208601611dcd565b611e3681611df7565b840191505092915050565b60006020820190508181036000830152611e5b8184611e08565b905092915050565b60008115159050919050565b611e7881611e63565b82525050565b6000602082019050611e936000830184611e6f565b92915050565b600060e0820190508181036000830152611eb3818a611e08565b90508181036020830152611ec78189611e08565b90508181036040830152611edb8188611e08565b90508181036060830152611eef8187611e08565b90508181036080830152611f038186611e08565b905081810360a0830152611f178185611e08565b905081810360c0830152611f2b8184611e08565b905098975050505050505050565b600081519050919050565b600082825260208201905092915050565b6000819050602082019050919050565b611f6e81611d46565b82525050565b600082825260208201905092915050565b6000611f9082611db1565b611f9a8185611f74565b9350611faa818560208601611dcd565b611fb381611df7565b840191505092915050565b6000604083016000830151611fd66000860182611f65565b5060208301518482036020860152611fee8282611f85565b9150508091505092915050565b60006120078383611fbe565b905092915050565b6000602082019050919050565b600061202782611f39565b6120318185611f44565b93508360208202850161204385611f55565b8060005b8581101561207f57848403895281516120608582611ffb565b945061206b8361200f565b925060208a01995050600181019050612047565b50829750879550505050505092915050565b600060208201905081810360008301526120ab818461201c565b905092915050565b600081519050919050565b600082825260208201905092915050565b6000819050602082019050919050565b60006040830160008301516120f76000860182611f65565b506020830151848203602086015261210f8282611f85565b9150508091505092915050565b600061212883836120df565b905092915050565b6000602082019050919050565b6000612148826120b3565b61215281856120be565b935083602082028501612164856120cf565b8060005b858110156121a05784840389528151612181858261211c565b945061218c83612130565b925060208a01995050600181019050612168565b50829750879550505050505092915050565b600060208201905081810360008301526121cc818461213d565b905092915050565b600080fd5b600080fd5b7f4e487b7100000000000000000000000000000000000000000000000000000000600052604160045260246000fd5b61221682611df7565b810181811067ffffffffffffffff82111715612235576122346121de565b5b80604052505050565b6000612248611d12565b9050612254828261220d565b919050565b600067ffffffffffffffff821115612274576122736121de565b5b61227d82611df7565b9050602081019050919050565b82818337600083830152505050565b60006122ac6122a784612259565b61223e565b9050828152602081018484840111156122c8576122c76121d9565b5b6122d384828561228a565b509392505050565b600082601f8301126122f0576122ef6121d4565b5b8135612300848260208601612299565b91505092915050565b6000819050919050565b61231c81612309565b811461232757600080fd5b50565b60008135905061233981612313565b92915050565b6000806000806000806000806000806101408b8d03121561236357612362611d1c565b5b60006123718d828e01611d6f565b9a505060208b013567ffffffffffffffff81111561239257612391611d21565b5b61239e8d828e016122db565b99505060408b013567ffffffffffffffff8111156123bf576123be611d21565b5b6123cb8d828e016122db565b98505060608b013567ffffffffffffffff8111156123ec576123eb611d21565b5b6123f88d828e016122db565b97505060808b013567ffffffffffffffff81111561241957612418611d21565b5b6124258d828e016122db565b96505060a08b013567ffffffffffffffff81111561244657612445611d21565b5b6124528d828e016122db565b95505060c08b013567ffffffffffffffff81111561247357612472611d21565b5b61247f8d828e016122db565b94505060e08b013567ffffffffffffffff8111156124a05761249f611d21565b5b6124ac8d828e016122db565b9350506101008b013567ffffffffffffffff8111156124ce576124cd611d21565b5b6124da8d828e016122db565b9250506101206124ec8d828e0161232a565b9150509295989b9194979a5092959850565b7f4e487b7100000000000000000000000000000000000000000000000000000000600052602260045260246000fd5b6000600282049050600182168061254557607f821691505b602082108103612558576125576124fe565b5b50919050565b7f556e617574686f72697a65642100000000000000000000000000000000000000600082015250565b6000612594600d83611dbc565b915061259f8261255e565b602082019050919050565b600060208201905081810360008301526125c381612587565b9050919050565b7f5573657220616c72656164792065786973747321000000000000000000000000600082015250565b6000612600601483611dbc565b915061260b826125ca565b602082019050919050565b6000602082019050818103600083015261262f816125f3565b9050919050565b7f53747564656e7449442063616e6e6f7420626520656d70747900000000000000600082015250565b600061266c601983611dbc565b915061267782612636565b602082019050919050565b6000602082019050818103600083015261269b8161265f565b9050919050565b60008190508160005260206000209050919050565b60006020601f8301049050919050565b600082821b905092915050565b6000600883026127047fffffffffffffffffffffffffffffffffffffffffffffffffffffffffffffffff826126c7565b61270e86836126c7565b95508019841693508086168417925050509392505050565b6000819050919050565b600061274b61274661274184612309565b612726565b612309565b9050919050565b6000819050919050565b61276583612730565b61277961277182612752565b8484546126d4565b825550505050565b600090565b61278e612781565b61279981848461275c565b505050565b5b818110156127bd576127b2600082612786565b60018101905061279f565b5050565b601f821115612802576127d3816126a2565b6127dc846126b7565b810160208510156127eb578190505b6127ff6127f7856126b7565b83018261279e565b50505b505050565b600082821c905092915050565b600061282560001984600802612807565b1980831691505092915050565b600061283e8383612814565b9150826002028217905092915050565b61285782611db1565b67ffffffffffffffff8111156128705761286f6121de565b5b61287a825461252d565b6128858282856127c1565b600060209050601f8311600181146128b857600084156128a6578287015190505b6128b08582612832565b865550612918565b601f1984166128c6866126a2565b60005b828110156128ee578489015182556001820191506020850194506020810190506128c9565b8683101561290b5784890151612907601f891682612814565b8355505b6001600288020188555050505b50505050505056fea26469706673582212204c13822b4be82343fe2f5b52f73d5b2ab3fad295b0e9e3a89d46ffd8b6548a1264736f6c63430008110033",
  "linkReferences": {},
  "deployedLinkReferences": {}
}